{
  "contractName": "MultiBeneficiaryTokenVesting",
  "abi": [
    {
      "inputs": [
        {
          "internalType": "contract IERC20",
          "name": "_token",
          "type": "address"
        },
        {
          "internalType": "uint256",
          "name": "_start",
          "type": "uint256"
        },
        {
          "internalType": "uint256",
          "name": "_cliff",
          "type": "uint256"
        },
        {
          "internalType": "uint256",
          "name": "_duration",
          "type": "uint256"
        }
      ],
      "stateMutability": "nonpayable",
      "type": "constructor"
    },
    {
      "anonymous": false,
      "inputs": [
        {
          "indexed": true,
          "internalType": "address",
          "name": "previousOwner",
          "type": "address"
        },
        {
          "indexed": true,
          "internalType": "address",
          "name": "newOwner",
          "type": "address"
        }
      ],
      "name": "OwnershipTransferred",
      "type": "event"
    },
    {
      "anonymous": false,
      "inputs": [
        {
          "indexed": false,
          "internalType": "address",
          "name": "beneficiary",
          "type": "address"
        },
        {
          "indexed": false,
          "internalType": "uint256",
          "name": "amount",
          "type": "uint256"
        }
      ],
      "name": "Released",
      "type": "event"
    },
    {
      "inputs": [
        {
          "internalType": "uint256",
          "name": "",
          "type": "uint256"
        }
      ],
      "name": "beneficiaries",
      "outputs": [
        {
          "internalType": "address",
          "name": "",
          "type": "address"
        }
      ],
      "stateMutability": "view",
      "type": "function"
    },
    {
      "inputs": [],
      "name": "cliff",
      "outputs": [
        {
          "internalType": "uint256",
          "name": "",
          "type": "uint256"
        }
      ],
      "stateMutability": "view",
      "type": "function"
    },
    {
      "inputs": [],
      "name": "duration",
      "outputs": [
        {
          "internalType": "uint256",
          "name": "",
          "type": "uint256"
        }
      ],
      "stateMutability": "view",
      "type": "function"
    },
    {
      "inputs": [],
      "name": "owner",
      "outputs": [
        {
          "internalType": "address",
          "name": "",
          "type": "address"
        }
      ],
      "stateMutability": "view",
      "type": "function"
    },
    {
      "inputs": [
        {
          "internalType": "address",
          "name": "",
          "type": "address"
        }
      ],
      "name": "released",
      "outputs": [
        {
          "internalType": "uint256",
          "name": "",
          "type": "uint256"
        }
      ],
      "stateMutability": "view",
      "type": "function"
    },
    {
      "inputs": [],
      "name": "renounceOwnership",
      "outputs": [],
      "stateMutability": "nonpayable",
      "type": "function"
    },
    {
      "inputs": [
        {
          "internalType": "address",
          "name": "",
          "type": "address"
        }
      ],
      "name": "shares",
      "outputs": [
        {
          "internalType": "uint256",
          "name": "",
          "type": "uint256"
        }
      ],
      "stateMutability": "view",
      "type": "function"
    },
    {
      "inputs": [],
      "name": "start",
      "outputs": [
        {
          "internalType": "uint256",
          "name": "",
          "type": "uint256"
        }
      ],
      "stateMutability": "view",
      "type": "function"
    },
    {
      "inputs": [],
      "name": "token",
      "outputs": [
        {
          "internalType": "contract IERC20",
          "name": "",
          "type": "address"
        }
      ],
      "stateMutability": "view",
      "type": "function"
    },
    {
      "inputs": [],
      "name": "totalReleased",
      "outputs": [
        {
          "internalType": "uint256",
          "name": "",
          "type": "uint256"
        }
      ],
      "stateMutability": "view",
      "type": "function"
    },
    {
      "inputs": [
        {
          "internalType": "address",
          "name": "newOwner",
          "type": "address"
        }
      ],
      "name": "transferOwnership",
      "outputs": [],
      "stateMutability": "nonpayable",
      "type": "function"
    },
    {
      "inputs": [],
      "name": "totalBeneficiaries",
      "outputs": [
        {
          "internalType": "uint256",
          "name": "",
          "type": "uint256"
        }
      ],
      "stateMutability": "view",
      "type": "function"
    },
    {
      "inputs": [],
      "name": "totalShare",
      "outputs": [
        {
          "internalType": "uint256",
          "name": "",
          "type": "uint256"
        }
      ],
      "stateMutability": "view",
      "type": "function"
    },
    {
      "inputs": [
        {
          "internalType": "address",
          "name": "_beneficiary",
          "type": "address"
        },
        {
          "internalType": "uint256",
          "name": "_amount",
          "type": "uint256"
        }
      ],
      "name": "addBeneficiary",
      "outputs": [],
      "stateMutability": "nonpayable",
      "type": "function"
    },
    {
      "inputs": [
        {
          "internalType": "address",
          "name": "_beneficiary",
          "type": "address"
        }
      ],
      "name": "calculateReleaseAmount",
      "outputs": [
        {
          "internalType": "uint256",
          "name": "",
          "type": "uint256"
        }
      ],
      "stateMutability": "view",
      "type": "function"
    },
    {
      "inputs": [],
      "name": "release",
      "outputs": [],
      "stateMutability": "nonpayable",
      "type": "function"
    },
    {
      "inputs": [
        {
          "internalType": "address",
          "name": "_beneficiary",
          "type": "address"
        }
      ],
      "name": "releaseFor",
      "outputs": [],
      "stateMutability": "nonpayable",
      "type": "function"
    }
  ],
  "bytecode": "0x6080604052600060075534801561001557600080fd5b50604051610fbe380380610fbe8339810160408190526100349161014a565b61003d336100e7565b808211156100a45760405162461bcd60e51b815260206004820152602a60248201527f436c6966662068617320746f206265206c6f776572206f7220657175616c20746044820152693790323ab930ba34b7b760b11b606482015260840160405180910390fd5b600180546001600160a01b0319166001600160a01b03861617905560048190556100d98383610137602090811b61071217901c565b6002555050600355506101bb565b600080546001600160a01b038381166001600160a01b0319831681178455604051919092169283917f8be0079c531659141344cd1fd0a4f28419497f9722a3daafe3b4186f6b6457e09190a35050565b60006101438284610195565b9392505050565b6000806000806080858703121561016057600080fd5b84516001600160a01b038116811461017757600080fd5b60208601516040870151606090970151919890975090945092505050565b600082198211156101b657634e487b7160e01b600052601160045260246000fd5b500190565b610df4806101ca6000396000f3fe608060405234801561001057600080fd5b506004361061010b5760003560e01c80639852595c116100a2578063e33b7de311610071578063e33b7de3146101eb578063ec0904f7146101f4578063efeb5e5814610207578063f2fde38b1461021a578063fc0c546a1461022d57600080fd5b80639852595c1461019a578063be9a6555146101ba578063ce7c2ac2146101c3578063d01a69c9146101e357600080fd5b8063715018a6116100de578063715018a61461015057806386d1a69f1461015a5780638da5cb5b1461016257806396074e701461018757600080fd5b8063026c4207146101105780630fb5a6b41461012b5780631285e3121461013457806313d033c014610147575b600080fd5b610118610240565b6040519081526020015b60405180910390f35b61011860045481565b610118610142366004610bd3565b6102af565b61011860025481565b610158610374565b005b6101586103b3565b6000546001600160a01b03165b6040516001600160a01b039091168152602001610122565b610158610195366004610bee565b61041b565b6101186101a8366004610bd3565b60066020526000908152604090205481565b61011860035481565b6101186101d1366004610bd3565b60056020526000908152604090205481565b600854610118565b61011860075481565b610158610202366004610bd3565b6105b4565b61016f610215366004610c18565b610650565b610158610228366004610bd3565b61067a565b60015461016f906001600160a01b031681565b600080805b6008548110156102a957610295600560006008848154811061026957610269610c31565b60009182526020808320909101546001600160a01b031683528201929092526040019020548390610712565b9150806102a181610c5d565b915050610245565b50919050565b60006002544310156102c357506000919050565b6004546003546102d291610712565b43111561030d576001600160a01b03821660009081526006602090815260408083205460059092529091205461030791610725565b92915050565b6001600160a01b03821660009081526006602052604090205460045460035461030792916103699161036390610344904390610725565b6001600160a01b03881660009081526005602052604090205490610731565b9061073d565b90610725565b919050565b6000546001600160a01b031633146103a75760405162461bcd60e51b815260040161039e90610c78565b60405180910390fd5b6103b16000610749565b565b3360009081526005602052604090205461040f5760405162461bcd60e51b815260206004820152601a60248201527f596f752063616e6e6f742072656c6561736520746f6b656e7321000000000000604482015260640161039e565b61041833610799565b50565b6000546001600160a01b031633146104455760405162461bcd60e51b815260040161039e90610c78565b6001600160a01b0382166104a95760405162461bcd60e51b815260206004820152602560248201527f5468652062656e6566696369617279277320616464726573732063616e6e6f74604482015264020626520360dc1b606482015260840161039e565b600081116105085760405162461bcd60e51b815260206004820152602660248201527f53686172657320616d6f756e742068617320746f20626520677265617465722060448201526507468616e20360d41b606482015260840161039e565b6001600160a01b03821660009081526005602052604090205461057157600880546001810182556000919091527ff3f7a9fe364faab93b216da50a3214154f22a0a2b415b23a84c8169e8b636ee30180546001600160a01b0319166001600160a01b0384161790555b6001600160a01b0382166000908152600560205260409020546105949082610712565b6001600160a01b0390921660009081526005602052604090209190915550565b6000546001600160a01b031633146105de5760405162461bcd60e51b815260040161039e90610c78565b6001600160a01b0381166000908152600560205260409020546106435760405162461bcd60e51b815260206004820152601a60248201527f596f752063616e6e6f742072656c6561736520746f6b656e7321000000000000604482015260640161039e565b61064c81610799565b5050565b6008818154811061066057600080fd5b6000918252602090912001546001600160a01b0316905081565b6000546001600160a01b031633146106a45760405162461bcd60e51b815260040161039e90610c78565b6001600160a01b0381166107095760405162461bcd60e51b815260206004820152602660248201527f4f776e61626c653a206e6577206f776e657220697320746865207a65726f206160448201526564647265737360d01b606482015260840161039e565b61041881610749565b600061071e8284610cad565b9392505050565b600061071e8284610cc5565b600061071e8284610cdc565b600061071e8284610cfb565b600080546001600160a01b038381166001600160a01b0319831681178455604051919092169283917f8be0079c531659141344cd1fd0a4f28419497f9722a3daafe3b4186f6b6457e09190a35050565b6001600160a01b038116600090815260056020908152604080832054600690925282205410156108015760405162461bcd60e51b815260206004820152601360248201527243616e6e6f742072656c65617365206d6f726560681b604482015260640161039e565b600061080c836102af565b6001600160a01b038416600090815260066020526040812054919250906108339083610712565b6001600160a01b0385166000908152600560205260409020549091508111156108905760405162461bcd60e51b815260206004820152600f60248201526e536f6d657468696e672077726f6e6760881b604482015260640161039e565b6001600160a01b03841660009081526006602052604090208190556007546108b89083610712565b6007556001546108d2906001600160a01b0316858461091b565b604080516001600160a01b0386168152602081018490527fb21fb52d5749b80f3182f8c6992236b5e5576681880914484d7f4c9b062e619e910160405180910390a15092915050565b604080516001600160a01b038416602482015260448082018490528251808303909101815260649091019091526020810180516001600160e01b031663a9059cbb60e01b17905261096d908490610972565b505050565b60006109c7826040518060400160405280602081526020017f5361666545524332303a206c6f772d6c6576656c2063616c6c206661696c6564815250856001600160a01b0316610a449092919063ffffffff16565b80519091501561096d57808060200190518101906109e59190610d1d565b61096d5760405162461bcd60e51b815260206004820152602a60248201527f5361666545524332303a204552433230206f7065726174696f6e20646964206e6044820152691bdd081cdd58d8d9595960b21b606482015260840161039e565b6060610a538484600085610a5b565b949350505050565b606082471015610abc5760405162461bcd60e51b815260206004820152602660248201527f416464726573733a20696e73756666696369656e742062616c616e636520666f6044820152651c8818d85b1b60d21b606482015260840161039e565b843b610b0a5760405162461bcd60e51b815260206004820152601d60248201527f416464726573733a2063616c6c20746f206e6f6e2d636f6e7472616374000000604482015260640161039e565b600080866001600160a01b03168587604051610b269190610d6f565b60006040518083038185875af1925050503d8060008114610b63576040519150601f19603f3d011682016040523d82523d6000602084013e610b68565b606091505b5091509150610b78828286610b83565b979650505050505050565b60608315610b9257508161071e565b825115610ba25782518084602001fd5b8160405162461bcd60e51b815260040161039e9190610d8b565b80356001600160a01b038116811461036f57600080fd5b600060208284031215610be557600080fd5b61071e82610bbc565b60008060408385031215610c0157600080fd5b610c0a83610bbc565b946020939093013593505050565b600060208284031215610c2a57600080fd5b5035919050565b634e487b7160e01b600052603260045260246000fd5b634e487b7160e01b600052601160045260246000fd5b6000600019821415610c7157610c71610c47565b5060010190565b6020808252818101527f4f776e61626c653a2063616c6c6572206973206e6f7420746865206f776e6572604082015260600190565b60008219821115610cc057610cc0610c47565b500190565b600082821015610cd757610cd7610c47565b500390565b6000816000190483118215151615610cf657610cf6610c47565b500290565b600082610d1857634e487b7160e01b600052601260045260246000fd5b500490565b600060208284031215610d2f57600080fd5b8151801515811461071e57600080fd5b60005b83811015610d5a578181015183820152602001610d42565b83811115610d69576000848401525b50505050565b60008251610d81818460208701610d3f565b9190910192915050565b6020815260008251806020840152610daa816040850160208701610d3f565b601f01601f1916919091016040019291505056fea2646970667358221220f07ca96ecf79cdd7199e5e0db4afc0efdd8ec927a0e4b47a56552806481b1bda64736f6c634300080c0033",
  "immutableReferences": {},
  "source": "// SPDX-License-Identifier: UNLICENSED\n\npragma solidity ^0.8.0;\n\nimport \"@openzeppelin/contracts/token/ERC20/IERC20.sol\";\nimport \"@openzeppelin/contracts/token/ERC20/utils/SafeERC20.sol\";\nimport \"@openzeppelin/contracts/access/Ownable.sol\";\nimport \"@openzeppelin/contracts/utils/math/SafeMath.sol\";\nimport \"@openzeppelin/contracts/security/ReentrancyGuard.sol\";\n\ncontract MultiBeneficiaryTokenVesting is Ownable {\n    using SafeMath for uint256;\n    using SafeERC20 for IERC20;\n\n    event Released(address beneficiary, uint256 amount);\n\n    IERC20 public token;\n\n    uint256 public cliff;\n    uint256 public start;\n    uint256 public duration;\n\n    mapping(address => uint256) public shares;\n    mapping(address => uint256) public released;\n\n    uint256 public totalReleased = 0;\n\n    address[] public beneficiaries;\n\n    constructor(\n        IERC20 _token,\n        uint256 _start,\n        uint256 _cliff,\n        uint256 _duration\n    ) {\n        require(\n            _cliff <= _duration,\n            \"Cliff has to be lower or equal to duration\"\n        );\n        token = _token;\n        duration = _duration;\n        cliff = _start.add(_cliff);\n        start = _start;\n    }\n\n    function totalBeneficiaries() public view returns (uint) {\n        return beneficiaries.length;\n    }\n\n    function totalShare() public view returns (uint) {\n        uint total = 0;\n        for (uint i = 0; i < beneficiaries.length; i++) {\n            total = total.add(shares[beneficiaries[i]]);\n        }\n\n        return total;\n    }\n\n    function addBeneficiary(address _beneficiary, uint256 _amount)\n        public\n        onlyOwner\n    {\n        require(\n            _beneficiary != address(0),\n            \"The beneficiary's address cannot be 0\"\n        );\n        require(_amount > 0, \"Shares amount has to be greater than 0\");\n\n        if (shares[_beneficiary] == 0) {\n            beneficiaries.push(_beneficiary);\n        }\n\n        shares[_beneficiary] = shares[_beneficiary].add(_amount);\n    }\n\n    function calculateReleaseAmount(address _beneficiary) public view returns (uint256) {\n        if (block.number < cliff) {\n            return 0;\n        }\n        else if (block.number > start.add(duration)) {\n            return shares[_beneficiary].sub(released[_beneficiary]);\n        }\n        else {\n            return shares[_beneficiary].mul(block.number.sub(start))\n                .div(duration)\n                .sub(released[_beneficiary]);\n        }\n    }\n\n    function _release(address _beneficiary) private returns (uint256) {\n        require(released[_beneficiary] >= shares[_beneficiary], \"Cannot release more\");\n        uint _releaseAmount = calculateReleaseAmount(_beneficiary);\n        uint _newReleasedAmount = released[_beneficiary].add(_releaseAmount);\n        require(_newReleasedAmount <= shares[_beneficiary], \"Something wrong\");\n\n        released[_beneficiary] = _newReleasedAmount;\n        totalReleased = totalReleased.add(_releaseAmount);\n        \n        token.safeTransfer(_beneficiary, _releaseAmount);\n        emit Released(_beneficiary, _releaseAmount);\n\n        return _releaseAmount;\n    }\n\n    function release() public {\n        require(shares[msg.sender] > 0, \"You cannot release tokens!\");\n        _release(msg.sender);\n    }\n\n    function releaseFor(address _beneficiary) public onlyOwner {\n        require(shares[_beneficiary] > 0, \"You cannot release tokens!\");\n        _release(_beneficiary);\n    }\n}\n",
  "sourcePath": "/Users/tung/work/MollectorGame/mollector-contracts/contracts/TokenVesting.sol",
  "compiler": {
    "name": "solc",
    "version": "0.8.12+commit.f00d7308.Emscripten.clang"
  },
  "schemaVersion": "3.3.4",
  "updatedAt": "2022-03-06T09:47:57.849Z",
  "devdoc": {
    "kind": "dev",
    "methods": {
      "owner()": {
        "details": "Returns the address of the current owner."
      },
      "renounceOwnership()": {
        "details": "Leaves the contract without owner. It will not be possible to call `onlyOwner` functions anymore. Can only be called by the current owner. NOTE: Renouncing ownership will leave the contract without an owner, thereby removing any functionality that is only available to the owner."
      },
      "transferOwnership(address)": {
        "details": "Transfers ownership of the contract to a new account (`newOwner`). Can only be called by the current owner."
      }
    },
    "version": 1
  },
  "userdoc": {
    "kind": "user",
    "methods": {},
    "version": 1
  }
}